{
  "_format": "hh-sol-artifact-1",
  "contractName": "MyNFT",
  "sourceName": "contracts/MyNFT.sol",
  "abi": [
    {
      "inputs": [],
      "stateMutability": "nonpayable",
      "type": "constructor"
    },
    {
      "inputs": [
        {
          "internalType": "address",
          "name": "sender",
          "type": "address"
        },
        {
          "internalType": "uint256",
          "name": "tokenId",
          "type": "uint256"
        },
        {
          "internalType": "address",
          "name": "owner",
          "type": "address"
        }
      ],
      "name": "ERC721IncorrectOwner",
      "type": "error"
    },
    {
      "inputs": [
        {
          "internalType": "address",
          "name": "operator",
          "type": "address"
        },
        {
          "internalType": "uint256",
          "name": "tokenId",
          "type": "uint256"
        }
      ],
      "name": "ERC721InsufficientApproval",
      "type": "error"
    },
    {
      "inputs": [
        {
          "internalType": "address",
          "name": "approver",
          "type": "address"
        }
      ],
      "name": "ERC721InvalidApprover",
      "type": "error"
    },
    {
      "inputs": [
        {
          "internalType": "address",
          "name": "operator",
          "type": "address"
        }
      ],
      "name": "ERC721InvalidOperator",
      "type": "error"
    },
    {
      "inputs": [
        {
          "internalType": "address",
          "name": "owner",
          "type": "address"
        }
      ],
      "name": "ERC721InvalidOwner",
      "type": "error"
    },
    {
      "inputs": [
        {
          "internalType": "address",
          "name": "receiver",
          "type": "address"
        }
      ],
      "name": "ERC721InvalidReceiver",
      "type": "error"
    },
    {
      "inputs": [
        {
          "internalType": "address",
          "name": "sender",
          "type": "address"
        }
      ],
      "name": "ERC721InvalidSender",
      "type": "error"
    },
    {
      "inputs": [
        {
          "internalType": "uint256",
          "name": "tokenId",
          "type": "uint256"
        }
      ],
      "name": "ERC721NonexistentToken",
      "type": "error"
    },
    {
      "anonymous": false,
      "inputs": [
        {
          "indexed": true,
          "internalType": "address",
          "name": "owner",
          "type": "address"
        },
        {
          "indexed": true,
          "internalType": "address",
          "name": "approved",
          "type": "address"
        },
        {
          "indexed": true,
          "internalType": "uint256",
          "name": "tokenId",
          "type": "uint256"
        }
      ],
      "name": "Approval",
      "type": "event"
    },
    {
      "anonymous": false,
      "inputs": [
        {
          "indexed": true,
          "internalType": "address",
          "name": "owner",
          "type": "address"
        },
        {
          "indexed": true,
          "internalType": "address",
          "name": "operator",
          "type": "address"
        },
        {
          "indexed": false,
          "internalType": "bool",
          "name": "approved",
          "type": "bool"
        }
      ],
      "name": "ApprovalForAll",
      "type": "event"
    },
    {
      "anonymous": false,
      "inputs": [
        {
          "indexed": false,
          "internalType": "uint256",
          "name": "_fromTokenId",
          "type": "uint256"
        },
        {
          "indexed": false,
          "internalType": "uint256",
          "name": "_toTokenId",
          "type": "uint256"
        }
      ],
      "name": "BatchMetadataUpdate",
      "type": "event"
    },
    {
      "anonymous": false,
      "inputs": [
        {
          "indexed": false,
          "internalType": "uint256",
          "name": "_tokenId",
          "type": "uint256"
        }
      ],
      "name": "MetadataUpdate",
      "type": "event"
    },
    {
      "anonymous": false,
      "inputs": [
        {
          "indexed": true,
          "internalType": "uint256",
          "name": "tokenId",
          "type": "uint256"
        },
        {
          "indexed": false,
          "internalType": "uint256",
          "name": "valueSent",
          "type": "uint256"
        },
        {
          "indexed": false,
          "internalType": "uint256",
          "name": "tokenPrice",
          "type": "uint256"
        },
        {
          "indexed": true,
          "internalType": "address",
          "name": "previousOwner",
          "type": "address"
        },
        {
          "indexed": true,
          "internalType": "address",
          "name": "newOwner",
          "type": "address"
        }
      ],
      "name": "NFTBought",
      "type": "event"
    },
    {
      "anonymous": false,
      "inputs": [
        {
          "indexed": true,
          "internalType": "uint256",
          "name": "tokenId",
          "type": "uint256"
        },
        {
          "indexed": true,
          "internalType": "address",
          "name": "to",
          "type": "address"
        },
        {
          "indexed": false,
          "internalType": "string",
          "name": "tokenDataJson",
          "type": "string"
        },
        {
          "indexed": false,
          "internalType": "uint256",
          "name": "price",
          "type": "uint256"
        },
        {
          "indexed": false,
          "internalType": "string",
          "name": "blockchain",
          "type": "string"
        }
      ],
      "name": "NFTCreated",
      "type": "event"
    },
    {
      "anonymous": false,
      "inputs": [
        {
          "indexed": true,
          "internalType": "uint256",
          "name": "tokenId",
          "type": "uint256"
        }
      ],
      "name": "NFTDeleted",
      "type": "event"
    },
    {
      "anonymous": false,
      "inputs": [
        {
          "indexed": true,
          "internalType": "uint256",
          "name": "tokenId",
          "type": "uint256"
        },
        {
          "indexed": false,
          "internalType": "string",
          "name": "oldData",
          "type": "string"
        },
        {
          "indexed": false,
          "internalType": "string",
          "name": "newData",
          "type": "string"
        }
      ],
      "name": "NFTEdited",
      "type": "event"
    },
    {
      "anonymous": false,
      "inputs": [
        {
          "indexed": true,
          "internalType": "address",
          "name": "from",
          "type": "address"
        },
        {
          "indexed": true,
          "internalType": "address",
          "name": "to",
          "type": "address"
        },
        {
          "indexed": true,
          "internalType": "uint256",
          "name": "tokenId",
          "type": "uint256"
        }
      ],
      "name": "Transfer",
      "type": "event"
    },
    {
      "inputs": [
        {
          "internalType": "address",
          "name": "to",
          "type": "address"
        },
        {
          "internalType": "uint256",
          "name": "tokenId",
          "type": "uint256"
        }
      ],
      "name": "approve",
      "outputs": [],
      "stateMutability": "nonpayable",
      "type": "function"
    },
    {
      "inputs": [
        {
          "internalType": "address",
          "name": "owner",
          "type": "address"
        }
      ],
      "name": "balanceOf",
      "outputs": [
        {
          "internalType": "uint256",
          "name": "",
          "type": "uint256"
        }
      ],
      "stateMutability": "view",
      "type": "function"
    },
    {
      "inputs": [
        {
          "internalType": "uint256",
          "name": "tokenId",
          "type": "uint256"
        },
        {
          "internalType": "address",
          "name": "buyerAddress",
          "type": "address"
        }
      ],
      "name": "buyNFT",
      "outputs": [],
      "stateMutability": "payable",
      "type": "function"
    },
    {
      "inputs": [
        {
          "internalType": "address",
          "name": "to",
          "type": "address"
        },
        {
          "internalType": "string",
          "name": "tokenDataJson",
          "type": "string"
        },
        {
          "internalType": "uint256",
          "name": "price",
          "type": "uint256"
        }
      ],
      "name": "createNFT",
      "outputs": [
        {
          "internalType": "uint256",
          "name": "",
          "type": "uint256"
        }
      ],
      "stateMutability": "nonpayable",
      "type": "function"
    },
    {
      "inputs": [
        {
          "internalType": "uint256",
          "name": "tokenId",
          "type": "uint256"
        },
        {
          "internalType": "address",
          "name": "userAddress",
          "type": "address"
        }
      ],
      "name": "deleteNFT",
      "outputs": [],
      "stateMutability": "nonpayable",
      "type": "function"
    },
    {
      "inputs": [
        {
          "internalType": "uint256",
          "name": "tokenId",
          "type": "uint256"
        },
        {
          "internalType": "address",
          "name": "userAddress",
          "type": "address"
        },
        {
          "internalType": "string",
          "name": "newTokenDataJson",
          "type": "string"
        },
        {
          "internalType": "uint256",
          "name": "price",
          "type": "uint256"
        }
      ],
      "name": "editNFT",
      "outputs": [],
      "stateMutability": "nonpayable",
      "type": "function"
    },
    {
      "inputs": [
        {
          "internalType": "uint256",
          "name": "tokenId",
          "type": "uint256"
        }
      ],
      "name": "getApproved",
      "outputs": [
        {
          "internalType": "address",
          "name": "",
          "type": "address"
        }
      ],
      "stateMutability": "view",
      "type": "function"
    },
    {
      "inputs": [
        {
          "internalType": "uint256",
          "name": "tokenId",
          "type": "uint256"
        }
      ],
      "name": "getNftHistory",
      "outputs": [
        {
          "components": [
            {
              "internalType": "address",
              "name": "buyer",
              "type": "address"
            },
            {
              "internalType": "uint256",
              "name": "price",
              "type": "uint256"
            },
            {
              "internalType": "uint256",
              "name": "timestamp",
              "type": "uint256"
            }
          ],
          "internalType": "struct MyNFT.NFTTransaction[]",
          "name": "",
          "type": "tuple[]"
        }
      ],
      "stateMutability": "view",
      "type": "function"
    },
    {
      "inputs": [
        {
          "internalType": "uint256",
          "name": "tokenId",
          "type": "uint256"
        }
      ],
      "name": "getPrice",
      "outputs": [
        {
          "internalType": "uint256",
          "name": "",
          "type": "uint256"
        }
      ],
      "stateMutability": "view",
      "type": "function"
    },
    {
      "inputs": [
        {
          "internalType": "uint256",
          "name": "tokenId",
          "type": "uint256"
        }
      ],
      "name": "getTokenData",
      "outputs": [
        {
          "internalType": "string",
          "name": "",
          "type": "string"
        }
      ],
      "stateMutability": "view",
      "type": "function"
    },
    {
      "inputs": [
        {
          "internalType": "address",
          "name": "owner",
          "type": "address"
        },
        {
          "internalType": "address",
          "name": "operator",
          "type": "address"
        }
      ],
      "name": "isApprovedForAll",
      "outputs": [
        {
          "internalType": "bool",
          "name": "",
          "type": "bool"
        }
      ],
      "stateMutability": "view",
      "type": "function"
    },
    {
      "inputs": [],
      "name": "name",
      "outputs": [
        {
          "internalType": "string",
          "name": "",
          "type": "string"
        }
      ],
      "stateMutability": "view",
      "type": "function"
    },
    {
      "inputs": [
        {
          "internalType": "uint256",
          "name": "",
          "type": "uint256"
        },
        {
          "internalType": "uint256",
          "name": "",
          "type": "uint256"
        }
      ],
      "name": "nftHistory",
      "outputs": [
        {
          "internalType": "address",
          "name": "buyer",
          "type": "address"
        },
        {
          "internalType": "uint256",
          "name": "price",
          "type": "uint256"
        },
        {
          "internalType": "uint256",
          "name": "timestamp",
          "type": "uint256"
        }
      ],
      "stateMutability": "view",
      "type": "function"
    },
    {
      "inputs": [
        {
          "internalType": "uint256",
          "name": "tokenId",
          "type": "uint256"
        }
      ],
      "name": "ownerOf",
      "outputs": [
        {
          "internalType": "address",
          "name": "",
          "type": "address"
        }
      ],
      "stateMutability": "view",
      "type": "function"
    },
    {
      "inputs": [
        {
          "internalType": "address",
          "name": "from",
          "type": "address"
        },
        {
          "internalType": "address",
          "name": "to",
          "type": "address"
        },
        {
          "internalType": "uint256",
          "name": "tokenId",
          "type": "uint256"
        }
      ],
      "name": "safeTransferFrom",
      "outputs": [],
      "stateMutability": "nonpayable",
      "type": "function"
    },
    {
      "inputs": [
        {
          "internalType": "address",
          "name": "from",
          "type": "address"
        },
        {
          "internalType": "address",
          "name": "to",
          "type": "address"
        },
        {
          "internalType": "uint256",
          "name": "tokenId",
          "type": "uint256"
        },
        {
          "internalType": "bytes",
          "name": "data",
          "type": "bytes"
        }
      ],
      "name": "safeTransferFrom",
      "outputs": [],
      "stateMutability": "nonpayable",
      "type": "function"
    },
    {
      "inputs": [
        {
          "internalType": "address",
          "name": "operator",
          "type": "address"
        },
        {
          "internalType": "bool",
          "name": "approved",
          "type": "bool"
        }
      ],
      "name": "setApprovalForAll",
      "outputs": [],
      "stateMutability": "nonpayable",
      "type": "function"
    },
    {
      "inputs": [
        {
          "internalType": "bytes4",
          "name": "interfaceId",
          "type": "bytes4"
        }
      ],
      "name": "supportsInterface",
      "outputs": [
        {
          "internalType": "bool",
          "name": "",
          "type": "bool"
        }
      ],
      "stateMutability": "view",
      "type": "function"
    },
    {
      "inputs": [],
      "name": "symbol",
      "outputs": [
        {
          "internalType": "string",
          "name": "",
          "type": "string"
        }
      ],
      "stateMutability": "view",
      "type": "function"
    },
    {
      "inputs": [],
      "name": "tokenCounter",
      "outputs": [
        {
          "internalType": "uint256",
          "name": "",
          "type": "uint256"
        }
      ],
      "stateMutability": "view",
      "type": "function"
    },
    {
      "inputs": [
        {
          "internalType": "uint256",
          "name": "",
          "type": "uint256"
        }
      ],
      "name": "tokenData",
      "outputs": [
        {
          "internalType": "string",
          "name": "",
          "type": "string"
        }
      ],
      "stateMutability": "view",
      "type": "function"
    },
    {
      "inputs": [
        {
          "internalType": "uint256",
          "name": "",
          "type": "uint256"
        }
      ],
      "name": "tokenPrices",
      "outputs": [
        {
          "internalType": "uint256",
          "name": "",
          "type": "uint256"
        }
      ],
      "stateMutability": "view",
      "type": "function"
    },
    {
      "inputs": [
        {
          "internalType": "uint256",
          "name": "tokenId",
          "type": "uint256"
        }
      ],
      "name": "tokenURI",
      "outputs": [
        {
          "internalType": "string",
          "name": "",
          "type": "string"
        }
      ],
      "stateMutability": "view",
      "type": "function"
    },
    {
      "inputs": [
        {
          "internalType": "address",
          "name": "from",
          "type": "address"
        },
        {
          "internalType": "address",
          "name": "to",
          "type": "address"
        },
        {
          "internalType": "uint256",
          "name": "tokenId",
          "type": "uint256"
        }
      ],
      "name": "transferFrom",
      "outputs": [],
      "stateMutability": "nonpayable",
      "type": "function"
    }
  ],
  "bytecode": "0x608060405234801561001057600080fd5b506040518060400160405280600581526020017f4d794e46540000000000000000000000000000000000000000000000000000008152506040518060400160405280600481526020017f4d4e465400000000000000000000000000000000000000000000000000000000815250816000908161008c91906102fc565b50806001908161009c91906102fc565b50505060006007819055506103ce565b600081519050919050565b7f4e487b7100000000000000000000000000000000000000000000000000000000600052604160045260246000fd5b7f4e487b7100000000000000000000000000000000000000000000000000000000600052602260045260246000fd5b6000600282049050600182168061012d57607f821691505b6020821081036101405761013f6100e6565b5b50919050565b60008190508160005260206000209050919050565b60006020601f8301049050919050565b600082821b905092915050565b6000600883026101a87fffffffffffffffffffffffffffffffffffffffffffffffffffffffffffffffff8261016b565b6101b2868361016b565b95508019841693508086168417925050509392505050565b6000819050919050565b6000819050919050565b60006101f96101f46101ef846101ca565b6101d4565b6101ca565b9050919050565b6000819050919050565b610213836101de565b61022761021f82610200565b848454610178565b825550505050565b600090565b61023c61022f565b61024781848461020a565b505050565b5b8181101561026b57610260600082610234565b60018101905061024d565b5050565b601f8211156102b05761028181610146565b61028a8461015b565b81016020851015610299578190505b6102ad6102a58561015b565b83018261024c565b50505b505050565b600082821c905092915050565b60006102d3600019846008026102b5565b1980831691505092915050565b60006102ec83836102c2565b9150826002028217905092915050565b610305826100ac565b67ffffffffffffffff81111561031e5761031d6100b7565b5b6103288254610115565b61033382828561026f565b600060209050601f8311600181146103665760008415610354578287015190505b61035e85826102e0565b8655506103c6565b601f19841661037486610146565b60005b8281101561039c57848901518255600182019150602085019450602081019050610377565b868310156103b957848901516103b5601f8916826102c2565b8355505b6001600288020188555050505b505050505050565b6138e2806103dd6000396000f3fe60806040526004361061014b5760003560e01c8063b09afec1116100b6578063d8db47a71161006f578063d8db47a7146104da578063e5afe3e6146104f6578063e6abf27e14610533578063e757223014610570578063e985e9c5146105ad578063eaa6a676146105ea5761014b565b8063b09afec114610390578063b4b5b48f146103cd578063b88d4fde1461040a578063bb556e7314610433578063c87b56dd14610472578063d082e381146104af5761014b565b806350bc6bfd1161010857806350bc6bfd146102705780636352211e1461029957806370a08231146102d657806395d89b4114610313578063a22cb4651461033e578063ae1b62a6146103675761014b565b806301ffc9a71461015057806306fdde031461018d578063081812fc146101b8578063095ea7b3146101f557806323b872dd1461021e57806342842e0e14610247575b600080fd5b34801561015c57600080fd5b50610177600480360381019061017291906126ad565b610627565b60405161018491906126f5565b60405180910390f35b34801561019957600080fd5b506101a2610688565b6040516101af91906127a0565b60405180910390f35b3480156101c457600080fd5b506101df60048036038101906101da91906127f8565b61071a565b6040516101ec9190612866565b60405180910390f35b34801561020157600080fd5b5061021c600480360381019061021791906128ad565b610736565b005b34801561022a57600080fd5b50610245600480360381019061024091906128ed565b61074c565b005b34801561025357600080fd5b5061026e600480360381019061026991906128ed565b61084e565b005b34801561027c57600080fd5b5061029760048036038101906102929190612940565b61086e565b005b3480156102a557600080fd5b506102c060048036038101906102bb91906127f8565b610954565b6040516102cd9190612866565b60405180910390f35b3480156102e257600080fd5b506102fd60048036038101906102f89190612980565b610966565b60405161030a91906129bc565b60405180910390f35b34801561031f57600080fd5b50610328610a20565b60405161033591906127a0565b60405180910390f35b34801561034a57600080fd5b5061036560048036038101906103609190612a03565b610ab2565b005b34801561037357600080fd5b5061038e60048036038101906103899190612b78565b610ac8565b005b34801561039c57600080fd5b506103b760048036038101906103b291906127f8565b610cfd565b6040516103c491906127a0565b60405180910390f35b3480156103d957600080fd5b506103f460048036038101906103ef91906127f8565b610da2565b60405161040191906127a0565b60405180910390f35b34801561041657600080fd5b50610431600480360381019061042c9190612c9c565b610e42565b005b34801561043f57600080fd5b5061045a60048036038101906104559190612d1f565b610e67565b60405161046993929190612d5f565b60405180910390f35b34801561047e57600080fd5b50610499600480360381019061049491906127f8565b610ece565b6040516104a691906127a0565b60405180910390f35b3480156104bb57600080fd5b506104c4610fe1565b6040516104d191906129bc565b60405180910390f35b6104f460048036038101906104ef9190612940565b610fe7565b005b34801561050257600080fd5b5061051d600480360381019061051891906127f8565b61126c565b60405161052a91906129bc565b60405180910390f35b34801561053f57600080fd5b5061055a600480360381019061055591906127f8565b611284565b6040516105679190612ea5565b60405180910390f35b34801561057c57600080fd5b50610597600480360381019061059291906127f8565b611360565b6040516105a491906129bc565b60405180910390f35b3480156105b957600080fd5b506105d460048036038101906105cf9190612ec7565b61137d565b6040516105e191906126f5565b60405180910390f35b3480156105f657600080fd5b50610611600480360381019061060c9190612f07565b611411565b60405161061e91906129bc565b60405180910390f35b6000634906490660e01b7bffffffffffffffffffffffffffffffffffffffffffffffffffffffff1916827bffffffffffffffffffffffffffffffffffffffffffffffffffffffff19161480610681575061068082611529565b5b9050919050565b60606000805461069790612fa5565b80601f01602080910402602001604051908101604052809291908181526020018280546106c390612fa5565b80156107105780601f106106e557610100808354040283529160200191610710565b820191906000526020600020905b8154815290600101906020018083116106f357829003601f168201915b5050505050905090565b60006107258261160b565b5061072f82611693565b9050919050565b61074882826107436116d0565b6116d8565b5050565b600073ffffffffffffffffffffffffffffffffffffffff168273ffffffffffffffffffffffffffffffffffffffff16036107be5760006040517f64a0ae920000000000000000000000000000000000000000000000000000000081526004016107b59190612866565b60405180910390fd5b60006107d283836107cd6116d0565b6116ea565b90508373ffffffffffffffffffffffffffffffffffffffff168173ffffffffffffffffffffffffffffffffffffffff1614610848578382826040517f64283d7b00000000000000000000000000000000000000000000000000000000815260040161083f93929190612fd6565b60405180910390fd5b50505050565b61086983838360405180602001604052806000815250610e42565b505050565b8073ffffffffffffffffffffffffffffffffffffffff1661088e83610954565b73ffffffffffffffffffffffffffffffffffffffff16146108e4576040517f08c379a00000000000000000000000000000000000000000000000000000000081526004016108db9061307f565b60405180910390fd5b60096000838152602001908152602001600020600061090391906125e4565b600860008381526020019081526020016000206000905561092382611904565b817ffd4e67f68167e80a0ba865346407dc481a93ed1635e42f7625db8e1c046f371d60405160405180910390a25050565b600061095f8261160b565b9050919050565b60008073ffffffffffffffffffffffffffffffffffffffff168273ffffffffffffffffffffffffffffffffffffffff16036109d95760006040517f89c62b640000000000000000000000000000000000000000000000000000000081526004016109d09190612866565b60405180910390fd5b600360008373ffffffffffffffffffffffffffffffffffffffff1673ffffffffffffffffffffffffffffffffffffffff168152602001908152602001600020549050919050565b606060018054610a2f90612fa5565b80601f0160208091040260200160405190810160405280929190818152602001828054610a5b90612fa5565b8015610aa85780601f10610a7d57610100808354040283529160200191610aa8565b820191906000526020600020905b815481529060010190602001808311610a8b57829003601f168201915b5050505050905090565b610ac4610abd6116d0565b838361198a565b5050565b60008111610b0b576040517f08c379a0000000000000000000000000000000000000000000000000000000008152600401610b02906130eb565b60405180910390fd5b8273ffffffffffffffffffffffffffffffffffffffff16610b2b85610954565b73ffffffffffffffffffffffffffffffffffffffff1614610b81576040517f08c379a0000000000000000000000000000000000000000000000000000000008152600401610b7890613157565b60405180910390fd5b6000600960008681526020019081526020016000208054610ba190612fa5565b905011610be3576040517f08c379a0000000000000000000000000000000000000000000000000000000008152600401610bda906131c3565b60405180910390fd5b6000600960008681526020019081526020016000208054610c0390612fa5565b80601f0160208091040260200160405190810160405280929190818152602001828054610c2f90612fa5565b8015610c7c5780601f10610c5157610100808354040283529160200191610c7c565b820191906000526020600020905b815481529060010190602001808311610c5f57829003601f168201915b5050505050905082600960008781526020019081526020016000209081610ca3919061338f565b50816008600087815260200190815260200160002081905550847f7328a711db32b2d84dce1ce86e23c1665195a3878183719a2028395f2627911e8285604051610cee929190613461565b60405180910390a25050505050565b6060600960008381526020019081526020016000208054610d1d90612fa5565b80601f0160208091040260200160405190810160405280929190818152602001828054610d4990612fa5565b8015610d965780601f10610d6b57610100808354040283529160200191610d96565b820191906000526020600020905b815481529060010190602001808311610d7957829003601f168201915b50505050509050919050565b60096020528060005260406000206000915090508054610dc190612fa5565b80601f0160208091040260200160405190810160405280929190818152602001828054610ded90612fa5565b8015610e3a5780601f10610e0f57610100808354040283529160200191610e3a565b820191906000526020600020905b815481529060010190602001808311610e1d57829003601f168201915b505050505081565b610e4d84848461074c565b610e61610e586116d0565b85858585611af9565b50505050565b600a6020528160005260406000208181548110610e8357600080fd5b9060005260206000209060030201600091509150508060000160009054906101000a900473ffffffffffffffffffffffffffffffffffffffff16908060010154908060020154905083565b6060610ed98261160b565b506000600660008481526020019081526020016000208054610efa90612fa5565b80601f0160208091040260200160405190810160405280929190818152602001828054610f2690612fa5565b8015610f735780601f10610f4857610100808354040283529160200191610f73565b820191906000526020600020905b815481529060010190602001808311610f5657829003601f168201915b505050505090506000610f84611caa565b90506000815103610f99578192505050610fdc565b600082511115610fce578082604051602001610fb69291906134d4565b60405160208183030381529060405292505050610fdc565b610fd784611cc1565b925050505b919050565b60075481565b60006008600084815260200190815260200160002054905061100883610954565b73ffffffffffffffffffffffffffffffffffffffff168273ffffffffffffffffffffffffffffffffffffffff1603611075576040517f08c379a000000000000000000000000000000000000000000000000000000000815260040161106c9061356a565b60405180910390fd5b808273ffffffffffffffffffffffffffffffffffffffff163110156110cf576040517f08c379a00000000000000000000000000000000000000000000000000000000081526004016110c6906135fc565b60405180910390fd5b600060405180606001604052808473ffffffffffffffffffffffffffffffffffffffff168152602001838152602001428152509050600a600085815260200190815260200160002081908060018154018082558091505060019003906000526020600020906003020160009091909190915060008201518160000160006101000a81548173ffffffffffffffffffffffffffffffffffffffff021916908373ffffffffffffffffffffffffffffffffffffffff1602179055506020820151816001015560408201518160020155505060006111a985610954565b90506111b6818587611d2a565b8073ffffffffffffffffffffffffffffffffffffffff166108fc849081150290604051600060405180830381858888f193505050501580156111fc573d6000803e3d6000fd5b508373ffffffffffffffffffffffffffffffffffffffff168173ffffffffffffffffffffffffffffffffffffffff16867f59cd75f33f7dba03eb65b9b7ccd3e7547dc319d2c7a28d6fc9721def451946a0348760405161125d92919061361c565b60405180910390a45050505050565b60086020528060005260406000206000915090505481565b6060600a6000838152602001908152602001600020805480602002602001604051908101604052809291908181526020016000905b8282101561135557838290600052602060002090600302016040518060600160405290816000820160009054906101000a900473ffffffffffffffffffffffffffffffffffffffff1673ffffffffffffffffffffffffffffffffffffffff1673ffffffffffffffffffffffffffffffffffffffff16815260200160018201548152602001600282015481525050815260200190600101906112b9565b505050509050919050565b600060086000838152602001908152602001600020549050919050565b6000600560008473ffffffffffffffffffffffffffffffffffffffff1673ffffffffffffffffffffffffffffffffffffffff16815260200190815260200160002060008373ffffffffffffffffffffffffffffffffffffffff1673ffffffffffffffffffffffffffffffffffffffff16815260200190815260200160002060009054906101000a900460ff16905092915050565b6000808211611455576040517f08c379a000000000000000000000000000000000000000000000000000000000815260040161144c906130eb565b60405180910390fd5b6001600760008282546114689190613674565b92505081905550600060075490506114808582611e97565b836009600083815260200190815260200160002090816114a0919061338f565b508260086000838152602001908152602001600020819055508473ffffffffffffffffffffffffffffffffffffffff16817fedd0eabd45c7dc4173e66c96d2eab7252f3a6fb47143db3518f05d7ddaf201218686600960008781526020019081526020016000206040516115169392919061372c565b60405180910390a3809150509392505050565b60007f80ac58cd000000000000000000000000000000000000000000000000000000007bffffffffffffffffffffffffffffffffffffffffffffffffffffffff1916827bffffffffffffffffffffffffffffffffffffffffffffffffffffffff191614806115f457507f5b5e139f000000000000000000000000000000000000000000000000000000007bffffffffffffffffffffffffffffffffffffffffffffffffffffffff1916827bffffffffffffffffffffffffffffffffffffffffffffffffffffffff1916145b80611604575061160382611eb5565b5b9050919050565b60008061161783611f1f565b9050600073ffffffffffffffffffffffffffffffffffffffff168173ffffffffffffffffffffffffffffffffffffffff160361168a57826040517f7e27328900000000000000000000000000000000000000000000000000000000815260040161168191906129bc565b60405180910390fd5b80915050919050565b60006004600083815260200190815260200160002060009054906101000a900473ffffffffffffffffffffffffffffffffffffffff169050919050565b600033905090565b6116e58383836001611f5c565b505050565b6000806116f684611f1f565b9050600073ffffffffffffffffffffffffffffffffffffffff168373ffffffffffffffffffffffffffffffffffffffff161461173857611737818486612121565b5b600073ffffffffffffffffffffffffffffffffffffffff168173ffffffffffffffffffffffffffffffffffffffff16146117c95761177a600085600080611f5c565b6001600360008373ffffffffffffffffffffffffffffffffffffffff1673ffffffffffffffffffffffffffffffffffffffff168152602001908152602001600020600082825403925050819055505b600073ffffffffffffffffffffffffffffffffffffffff168573ffffffffffffffffffffffffffffffffffffffff161461184c576001600360008773ffffffffffffffffffffffffffffffffffffffff1673ffffffffffffffffffffffffffffffffffffffff168152602001908152602001600020600082825401925050819055505b846002600086815260200190815260200160002060006101000a81548173ffffffffffffffffffffffffffffffffffffffff021916908373ffffffffffffffffffffffffffffffffffffffff160217905550838573ffffffffffffffffffffffffffffffffffffffff168273ffffffffffffffffffffffffffffffffffffffff167fddf252ad1be2c89b69c2b068fc378daa952ba7f163c4a11628f55a4df523b3ef60405160405180910390a4809150509392505050565b600061191360008360006116ea565b9050600073ffffffffffffffffffffffffffffffffffffffff168173ffffffffffffffffffffffffffffffffffffffff160361198657816040517f7e27328900000000000000000000000000000000000000000000000000000000815260040161197d91906129bc565b60405180910390fd5b5050565b600073ffffffffffffffffffffffffffffffffffffffff168273ffffffffffffffffffffffffffffffffffffffff16036119fb57816040517f5b08ba180000000000000000000000000000000000000000000000000000000081526004016119f29190612866565b60405180910390fd5b80600560008573ffffffffffffffffffffffffffffffffffffffff1673ffffffffffffffffffffffffffffffffffffffff16815260200190815260200160002060008473ffffffffffffffffffffffffffffffffffffffff1673ffffffffffffffffffffffffffffffffffffffff16815260200190815260200160002060006101000a81548160ff0219169083151502179055508173ffffffffffffffffffffffffffffffffffffffff168373ffffffffffffffffffffffffffffffffffffffff167f17307eab39ab6107e8899845ad3d59bd9653f200f220920489ca2b5937696c3183604051611aec91906126f5565b60405180910390a3505050565b60008373ffffffffffffffffffffffffffffffffffffffff163b1115611ca3578273ffffffffffffffffffffffffffffffffffffffff1663150b7a02868685856040518563ffffffff1660e01b8152600401611b5894939291906137c6565b6020604051808303816000875af1925050508015611b9457506040513d601f19601f82011682018060405250810190611b919190613827565b60015b611c18573d8060008114611bc4576040519150601f19603f3d011682016040523d82523d6000602084013e611bc9565b606091505b506000815103611c1057836040517f64a0ae92000000000000000000000000000000000000000000000000000000008152600401611c079190612866565b60405180910390fd5b805181602001fd5b63150b7a0260e01b7bffffffffffffffffffffffffffffffffffffffffffffffffffffffff1916817bffffffffffffffffffffffffffffffffffffffffffffffffffffffff191614611ca157836040517f64a0ae92000000000000000000000000000000000000000000000000000000008152600401611c989190612866565b60405180910390fd5b505b5050505050565b606060405180602001604052806000815250905090565b6060611ccc8261160b565b506000611cd7611caa565b90506000815111611cf75760405180602001604052806000815250611d22565b80611d01846121e5565b604051602001611d129291906134d4565b6040516020818303038152906040525b915050919050565b600073ffffffffffffffffffffffffffffffffffffffff168273ffffffffffffffffffffffffffffffffffffffff1603611d9c5760006040517f64a0ae92000000000000000000000000000000000000000000000000000000008152600401611d939190612866565b60405180910390fd5b6000611daa838360006116ea565b9050600073ffffffffffffffffffffffffffffffffffffffff168173ffffffffffffffffffffffffffffffffffffffff1603611e1d57816040517f7e273289000000000000000000000000000000000000000000000000000000008152600401611e1491906129bc565b60405180910390fd5b8373ffffffffffffffffffffffffffffffffffffffff168173ffffffffffffffffffffffffffffffffffffffff1614611e91578382826040517f64283d7b000000000000000000000000000000000000000000000000000000008152600401611e8893929190612fd6565b60405180910390fd5b50505050565b611eb18282604051806020016040528060008152506122b3565b5050565b60007f01ffc9a7000000000000000000000000000000000000000000000000000000007bffffffffffffffffffffffffffffffffffffffffffffffffffffffff1916827bffffffffffffffffffffffffffffffffffffffffffffffffffffffff1916149050919050565b60006002600083815260200190815260200160002060009054906101000a900473ffffffffffffffffffffffffffffffffffffffff169050919050565b8080611f955750600073ffffffffffffffffffffffffffffffffffffffff168273ffffffffffffffffffffffffffffffffffffffff1614155b156120c9576000611fa58461160b565b9050600073ffffffffffffffffffffffffffffffffffffffff168373ffffffffffffffffffffffffffffffffffffffff161415801561201057508273ffffffffffffffffffffffffffffffffffffffff168173ffffffffffffffffffffffffffffffffffffffff1614155b80156120235750612021818461137d565b155b1561206557826040517fa9fbf51f00000000000000000000000000000000000000000000000000000000815260040161205c9190612866565b60405180910390fd5b81156120c757838573ffffffffffffffffffffffffffffffffffffffff168273ffffffffffffffffffffffffffffffffffffffff167f8c5be1e5ebec7d5bd14f71427d1e84f3dd0314c0f7b2291e5b200ac8c7c3b92560405160405180910390a45b505b836004600085815260200190815260200160002060006101000a81548173ffffffffffffffffffffffffffffffffffffffff021916908373ffffffffffffffffffffffffffffffffffffffff16021790555050505050565b61212c8383836122d7565b6121e057600073ffffffffffffffffffffffffffffffffffffffff168373ffffffffffffffffffffffffffffffffffffffff16036121a157806040517f7e27328900000000000000000000000000000000000000000000000000000000815260040161219891906129bc565b60405180910390fd5b81816040517f177e802f0000000000000000000000000000000000000000000000000000000081526004016121d7929190613854565b60405180910390fd5b505050565b6060600060016121f484612398565b01905060008167ffffffffffffffff81111561221357612212612a4d565b5b6040519080825280601f01601f1916602001820160405280156122455781602001600182028036833780820191505090505b509050600082602001820190505b6001156122a8578080600190039150507f3031323334353637383961626364656600000000000000000000000000000000600a86061a8153600a858161229c5761229b61387d565b5b04945060008503612253575b819350505050919050565b6122bd83836124eb565b6122d26122c86116d0565b6000858585611af9565b505050565b60008073ffffffffffffffffffffffffffffffffffffffff168373ffffffffffffffffffffffffffffffffffffffff161415801561238f57508273ffffffffffffffffffffffffffffffffffffffff168473ffffffffffffffffffffffffffffffffffffffff161480612350575061234f848461137d565b5b8061238e57508273ffffffffffffffffffffffffffffffffffffffff1661237683611693565b73ffffffffffffffffffffffffffffffffffffffff16145b5b90509392505050565b600080600090507a184f03e93ff9f4daa797ed6e38ed64bf6a1f01000000000000000083106123f6577a184f03e93ff9f4daa797ed6e38ed64bf6a1f01000000000000000083816123ec576123eb61387d565b5b0492506040810190505b6d04ee2d6d415b85acef81000000008310612433576d04ee2d6d415b85acef810000000083816124295761242861387d565b5b0492506020810190505b662386f26fc10000831061246257662386f26fc1000083816124585761245761387d565b5b0492506010810190505b6305f5e100831061248b576305f5e10083816124815761248061387d565b5b0492506008810190505b61271083106124b05761271083816124a6576124a561387d565b5b0492506004810190505b606483106124d357606483816124c9576124c861387d565b5b0492506002810190505b600a83106124e2576001810190505b80915050919050565b600073ffffffffffffffffffffffffffffffffffffffff168273ffffffffffffffffffffffffffffffffffffffff160361255d5760006040517f64a0ae920000000000000000000000000000000000000000000000000000000081526004016125549190612866565b60405180910390fd5b600061256b838360006116ea565b9050600073ffffffffffffffffffffffffffffffffffffffff168173ffffffffffffffffffffffffffffffffffffffff16146125df5760006040517f73c6ac6e0000000000000000000000000000000000000000000000000000000081526004016125d69190612866565b60405180910390fd5b505050565b5080546125f090612fa5565b6000825580601f106126025750612621565b601f0160209004906000526020600020908101906126209190612624565b5b50565b5b8082111561263d576000816000905550600101612625565b5090565b6000604051905090565b600080fd5b600080fd5b60007fffffffff0000000000000000000000000000000000000000000000000000000082169050919050565b61268a81612655565b811461269557600080fd5b50565b6000813590506126a781612681565b92915050565b6000602082840312156126c3576126c261264b565b5b60006126d184828501612698565b91505092915050565b60008115159050919050565b6126ef816126da565b82525050565b600060208201905061270a60008301846126e6565b92915050565b600081519050919050565b600082825260208201905092915050565b60005b8381101561274a57808201518184015260208101905061272f565b60008484015250505050565b6000601f19601f8301169050919050565b600061277282612710565b61277c818561271b565b935061278c81856020860161272c565b61279581612756565b840191505092915050565b600060208201905081810360008301526127ba8184612767565b905092915050565b6000819050919050565b6127d5816127c2565b81146127e057600080fd5b50565b6000813590506127f2816127cc565b92915050565b60006020828403121561280e5761280d61264b565b5b600061281c848285016127e3565b91505092915050565b600073ffffffffffffffffffffffffffffffffffffffff82169050919050565b600061285082612825565b9050919050565b61286081612845565b82525050565b600060208201905061287b6000830184612857565b92915050565b61288a81612845565b811461289557600080fd5b50565b6000813590506128a781612881565b92915050565b600080604083850312156128c4576128c361264b565b5b60006128d285828601612898565b92505060206128e3858286016127e3565b9150509250929050565b6000806000606084860312156129065761290561264b565b5b600061291486828701612898565b935050602061292586828701612898565b9250506040612936868287016127e3565b9150509250925092565b600080604083850312156129575761295661264b565b5b6000612965858286016127e3565b925050602061297685828601612898565b9150509250929050565b6000602082840312156129965761299561264b565b5b60006129a484828501612898565b91505092915050565b6129b6816127c2565b82525050565b60006020820190506129d160008301846129ad565b92915050565b6129e0816126da565b81146129eb57600080fd5b50565b6000813590506129fd816129d7565b92915050565b60008060408385031215612a1a57612a1961264b565b5b6000612a2885828601612898565b9250506020612a39858286016129ee565b9150509250929050565b600080fd5b600080fd5b7f4e487b7100000000000000000000000000000000000000000000000000000000600052604160045260246000fd5b612a8582612756565b810181811067ffffffffffffffff82111715612aa457612aa3612a4d565b5b80604052505050565b6000612ab7612641565b9050612ac38282612a7c565b919050565b600067ffffffffffffffff821115612ae357612ae2612a4d565b5b612aec82612756565b9050602081019050919050565b82818337600083830152505050565b6000612b1b612b1684612ac8565b612aad565b905082815260208101848484011115612b3757612b36612a48565b5b612b42848285612af9565b509392505050565b600082601f830112612b5f57612b5e612a43565b5b8135612b6f848260208601612b08565b91505092915050565b60008060008060808587031215612b9257612b9161264b565b5b6000612ba0878288016127e3565b9450506020612bb187828801612898565b935050604085013567ffffffffffffffff811115612bd257612bd1612650565b5b612bde87828801612b4a565b9250506060612bef878288016127e3565b91505092959194509250565b600067ffffffffffffffff821115612c1657612c15612a4d565b5b612c1f82612756565b9050602081019050919050565b6000612c3f612c3a84612bfb565b612aad565b905082815260208101848484011115612c5b57612c5a612a48565b5b612c66848285612af9565b509392505050565b600082601f830112612c8357612c82612a43565b5b8135612c93848260208601612c2c565b91505092915050565b60008060008060808587031215612cb657612cb561264b565b5b6000612cc487828801612898565b9450506020612cd587828801612898565b9350506040612ce6878288016127e3565b925050606085013567ffffffffffffffff811115612d0757612d06612650565b5b612d1387828801612c6e565b91505092959194509250565b60008060408385031215612d3657612d3561264b565b5b6000612d44858286016127e3565b9250506020612d55858286016127e3565b9150509250929050565b6000606082019050612d746000830186612857565b612d8160208301856129ad565b612d8e60408301846129ad565b949350505050565b600081519050919050565b600082825260208201905092915050565b6000819050602082019050919050565b612dcb81612845565b82525050565b612dda816127c2565b82525050565b606082016000820151612df66000850182612dc2565b506020820151612e096020850182612dd1565b506040820151612e1c6040850182612dd1565b50505050565b6000612e2e8383612de0565b60608301905092915050565b6000602082019050919050565b6000612e5282612d96565b612e5c8185612da1565b9350612e6783612db2565b8060005b83811015612e98578151612e7f8882612e22565b9750612e8a83612e3a565b925050600181019050612e6b565b5085935050505092915050565b60006020820190508181036000830152612ebf8184612e47565b905092915050565b60008060408385031215612ede57612edd61264b565b5b6000612eec85828601612898565b9250506020612efd85828601612898565b9150509250929050565b600080600060608486031215612f2057612f1f61264b565b5b6000612f2e86828701612898565b935050602084013567ffffffffffffffff811115612f4f57612f4e612650565b5b612f5b86828701612b4a565b9250506040612f6c868287016127e3565b9150509250925092565b7f4e487b7100000000000000000000000000000000000000000000000000000000600052602260045260246000fd5b60006002820490506001821680612fbd57607f821691505b602082108103612fd057612fcf612f76565b5b50919050565b6000606082019050612feb6000830186612857565b612ff860208301856129ad565b6130056040830184612857565b949350505050565b7f4f6e6c7920746865206f776e65722063616e2064656c6574652074686973204e60008201527f4654000000000000000000000000000000000000000000000000000000000000602082015250565b600061306960228361271b565b91506130748261300d565b604082019050919050565b600060208201905081810360008301526130988161305c565b9050919050565b7f5072696365206d7573742062652067726561746572207468616e207a65726f00600082015250565b60006130d5601f8361271b565b91506130e08261309f565b602082019050919050565b60006020820190508181036000830152613104816130c8565b9050919050565b7f4f6e6c7920746865206f776e65722063616e20656469742074686973204e4654600082015250565b600061314160208361271b565b915061314c8261310b565b602082019050919050565b6000602082019050818103600083015261317081613134565b9050919050565b7f546f6b656e20494420646f6573206e6f74206578697374000000000000000000600082015250565b60006131ad60178361271b565b91506131b882613177565b602082019050919050565b600060208201905081810360008301526131dc816131a0565b9050919050565b60008190508160005260206000209050919050565b60006020601f8301049050919050565b600082821b905092915050565b6000600883026132457fffffffffffffffffffffffffffffffffffffffffffffffffffffffffffffffff82613208565b61324f8683613208565b95508019841693508086168417925050509392505050565b6000819050919050565b600061328c613287613282846127c2565b613267565b6127c2565b9050919050565b6000819050919050565b6132a683613271565b6132ba6132b282613293565b848454613215565b825550505050565b600090565b6132cf6132c2565b6132da81848461329d565b505050565b5b818110156132fe576132f36000826132c7565b6001810190506132e0565b5050565b601f82111561334357613314816131e3565b61331d846131f8565b8101602085101561332c578190505b613340613338856131f8565b8301826132df565b50505b505050565b600082821c905092915050565b600061336660001984600802613348565b1980831691505092915050565b600061337f8383613355565b9150826002028217905092915050565b61339882612710565b67ffffffffffffffff8111156133b1576133b0612a4d565b5b6133bb8254612fa5565b6133c6828285613302565b600060209050601f8311600181146133f957600084156133e7578287015190505b6133f18582613373565b865550613459565b601f198416613407866131e3565b60005b8281101561342f5784890151825560018201915060208501945060208101905061340a565b8683101561344c5784890151613448601f891682613355565b8355505b6001600288020188555050505b505050505050565b6000604082019050818103600083015261347b8185612767565b9050818103602083015261348f8184612767565b90509392505050565b600081905092915050565b60006134ae82612710565b6134b88185613498565b93506134c881856020860161272c565b80840191505092915050565b60006134e082856134a3565b91506134ec82846134a3565b91508190509392505050565b7f427579657220697320616c726561647920746865206f776e6572206f6620746860008201527f6973204e46540000000000000000000000000000000000000000000000000000602082015250565b600061355460268361271b565b915061355f826134f8565b604082019050919050565b6000602082019050818103600083015261358381613547565b9050919050565b7f427579657220646f6573206e6f74206861766520656e6f7567682062616c616e60008201527f6365000000000000000000000000000000000000000000000000000000000000602082015250565b60006135e660228361271b565b91506135f18261358a565b604082019050919050565b60006020820190508181036000830152613615816135d9565b9050919050565b600060408201905061363160008301856129ad565b61363e60208301846129ad565b9392505050565b7f4e487b7100000000000000000000000000000000000000000000000000000000600052601160045260246000fd5b600061367f826127c2565b915061368a836127c2565b92508282019050808211156136a2576136a1613645565b5b92915050565b600081546136b581612fa5565b6136bf818661271b565b945060018216600081146136da57600181146136f057613723565b60ff198316865281151560200286019350613723565b6136f9856131e3565b60005b8381101561371b578154818901526001820191506020810190506136fc565b808801955050505b50505092915050565b600060608201905081810360008301526137468186612767565b905061375560208301856129ad565b818103604083015261376781846136a8565b9050949350505050565b600081519050919050565b600082825260208201905092915050565b600061379882613771565b6137a2818561377c565b93506137b281856020860161272c565b6137bb81612756565b840191505092915050565b60006080820190506137db6000830187612857565b6137e86020830186612857565b6137f560408301856129ad565b8181036060830152613807818461378d565b905095945050505050565b60008151905061382181612681565b92915050565b60006020828403121561383d5761383c61264b565b5b600061384b84828501613812565b91505092915050565b60006040820190506138696000830185612857565b61387660208301846129ad565b9392505050565b7f4e487b7100000000000000000000000000000000000000000000000000000000600052601260045260246000fdfea26469706673582212201a45349274eba2fc99cae7cc2afd569d47e210311dcdfc1203fe2548745a862c64736f6c634300081b0033",
  "linkReferences": {},
  "deployedLinkReferences": {}
}